:020000040800F2
:108000007806002029820008E5890008A98900086F
:10801000E1890008E3820008ED8D000800000000FF
:10802000000000000000000000000000D98A0008E5
:10803000C588000800000000758A0008C98B000888
:1080400043820008438200084382000843820008FC
:1080500043820008438200084382000843820008EC
:1080600043820008438200084382000843820008DC
:1080700043820008438200084382000843820008CC
:1080800043820008438200084382000843820008BC
:1080900043820008438200084382000843820008AC
:1080A000438200084382000843820008438200089C
:1080B00043820008AD8C0008438200084382000818
:1080C000438200084382000843820008438200087C
:1080D000438200084382000843820008438200086C
:1080E000438200084382000843820008438200085C
:1080F000438200084382000843820008438200084C
:10810000438200084382000843820008438200083B
:10811000438200084382000843820008438200082B
:10812000438200084382000843820008438200081B
:10813000438200084382000843820008438200080B
:1081400043820008438200084382000843820008FB
:1081500043820008438200084382000843820008EB
:1081600043820008438200084382000843820008DB
:1081700043820008438200084382000843820008CB
:10818000438200084382000800F002F800F03CF847
:108190000AA090E8000C82448344AAF10107DA4562
:1081A00001D100F031F8AFF2090EBAE80F0013F078
:1081B000010F18BFFB1A43F001031847700C0000B1
:1081C000900C0000103A24BF78C878C1FAD8520742
:1081D00024BF30C830C144BF04680C607047000041
:1081E0000023002400250026103A28BF78C1FBD8C0
:1081F000520728BF30C148BF0B6070471FB500F061
:108200000FFE1FBD10B510BD00F031F81146FFF78D
:10821000F5FF00F0EDFD00F04FF803B4FFF7F2FFBB
:1082200003BC00F057F800000948804709480047A0
:10823000FEE7FEE7FEE7FEE7FEE7FEE7FEE7FEE716
:10824000FEE7FEE704480549054A064B7047000073
:10825000CD8B000889810008780000207806002076
:1082600078020020780200207047704770477546FA
:1082700000F02CF8AE4605006946534620F0070092
:10828000854618B020B5FFF7DDFFBDE820404FF070
:1082900000064FF000074FF000084FF0000B21F0F0
:1082A0000701AC46ACE8C009ACE8C009ACE8C009BD
:1082B000ACE8C0098D46704710B50446AFF30080A6
:1082C0002046BDE81040FFF7A8BF000000487047F7
:1082D0001400002001491820ABBEFEE72600020072
:1082E000704700BFFEE700002DE9F04385B0064669
:1082F0000D4617464FF00008C14600960020019039
:108300008DF808008DF809008DF80A50002405E06A
:10831000395D0DF10B000155601CC4B2AC42F7DBB6
:108320006946134800F0EAF98046B8F1040F03D11A
:10833000012005B0BDE8F0830AE009F10109B9F5B3
:10834000003F05D341460A4800F08AF80220F0E7D2
:108350004146074800F066FA0228EED0414604483C
:1083600000F060FA012801D10020E2E70220E0E7F6
:108370000064004000B589B00121082000F07CFBBA
:108380000121480600F088FB09220021324800F054
:10839000E2FA09220121304800F0DDFA02200790BC
:1083A0008DF8200000208DF8220002208DF8210099
:1083B00001208DF8230007A9274800F084FA012046
:1083C000079002208DF8200001208DF8230007A9D6
:1083D000214800F078FA214800F056F804A800F08F
:1083E0007DF900208DF816008DF817008DF8180023
:1083F0008DF819008DF81A008DF81B008DF8120009
:108400000320ADF8100009208DF8140002208DF82B
:10841000150000208DF8130004A9104800F0D4F8CE
:1084200000208DF80A00ADF80000ADF80200ADF8AC
:108430000400ADF8060001208DF80C0000208DF836
:108440000B00ADF8080001208DF80D00684600F023
:1084500037F809B000BD0000000C02400064004085
:1084600021B1012905D002290BD106E080228260CA
:1084700008E04FF40042826004E04FF400028260A2
:1084800000E000BF00BF704710B504460B488442AF
:1084900009D10121480600F00FFB00214FF00070C8
:1084A00000F00AFB08E00121880600F005FB00212E
:1084B0004FF0806000F000FB10BD00000064004041
:1084C00010B50021837A012202FA03F13D4A1268B5
:1084D00042F001023B4B1A603A4A1C3212688A434E
:1084E000384B1C331A60027BCAB9364A0C32126808
:1084F0008A43344B0C331A604288C38842EA0343F0
:10850000304A4032847A42F834300288838842EA22
:1085100003432C4A4032847A02EBC4025360027B4C
:10852000012A19D1274A0C3212680A43254B0C3311
:108530001A604288038842EA0343224A4032847A1E
:1085400042F83430C288838842EA03431D4A4032ED
:10855000847A02EBC4025360C27A3AB9194A121DF6
:1085600012688A43174B1B1D1A6006E0154A121D3C
:1085700012680A43134B1B1D1A60028932B9114A53
:10858000143212688A430F4B14331A600289012A8D
:1085900006D10C4A143212680A430A4B14331A608B
:1085A000427B012A06D1074A1C3212680A43054B56
:1085B0001C331A60034A126822F00102014B1A6050
:1085C00010BD00000066004030B5024600200023C8
:1085D000146824F002041460146844F00104146068
:1085E00000E05B1C546804F001041CB94FF6FF74F2
:1085F000A342F6D1546804F001040CB900206CE0E9
:108600008C79012C04D1146844F08004146003E0D8
:10861000146824F080041460CC79012C04D114680F
:1086200044F04004146003E0146824F04004146033
:108630000C7A012C04D1146844F02004146003E087
:10864000146824F0200414604C7A012C04D11468BE
:1086500044F01004146003E0146824F01004146063
:108660008C7A012C04D1146844F00804146003E0EF
:10867000146824F008041460CC7A012C04D1146826
:1086800044F00404146003E0146824F0040414604B
:108690008C78A407CD7844EA05640D7944EA054452
:1086A0004D7944EA05540D886D1E2C43D46114683D
:1086B00024F001041460002300E05B1C546804F003
:1086C00001041CB14FF6FF74A342F6D1546804F0C4
:1086D00001040CB1002000E0012030BD00218171B7
:1086E000C171017241728172C1728170C1700321C6
:1086F00001710221417101210180704710B50246CC
:108700000020936803F08063B3F1806F00D110E024
:10871000936803F00063B3F1006F01D1012008E01A
:10872000936803F08053B3F1805F01D1022000E031
:108730000420042874D002F5C07303EB00131B68F7
:1087400003F0010402F5C07303EB00131C600B7A05
:108750007BB94B7A0C8843EA445302F5C07404EBAE
:1087600000142468234302F5C07404EB0014236052
:1087700010E00B7A4C6843EAC4034C7A234302F5B9
:10878000C07404EB00142468234302F5C07404EBA6
:10879000001423608B7A03F00F038B7202F5C07311
:1087A00003EB00135B6823F00F0402F5C07303EBC7
:1087B00000135C6002F5C07303EB00135B688C7AF6
:1087C000234302F5C07404EB001463608B7B1C062A
:1087D0004B7B44EA03440B7B44EA0323CC7A2343D8
:1087E00002F5C07404EB0014A3608B7C1C064B7C68
:1087F00044EA03440B7C44EA0323CC7B234302F585
:10880000C07404EB0014E36002F5C07303EB0013C3
:108810001B6843F0010402F5C07303EB00131C60F6
:1088200010BD000010B50246002321B1012907D078
:1088300002290FD109E090681D4C00EA04030BE007
:1088400090681C4C00EA040306E090681A4C00EAA9
:10885000040301E0002300BF00BF184C181BA34213
:1088600016D007DC83B16FF08060184470B1022825
:1088700018D111E0B0F5007F10D0114C204448B160
:10888000B0F5003F0ED10BE002230DE000230BE01A
:10889000002309E0002307E0012305E0012303E0B2
:1088A000012301E0002300BF00BFD8B210BD0000CB
:1088B000030000040003000800000310000100088A
:1088C0000001FFF77047F0B50A460021002300249D
:1088D00000BF3DE0012505FA01F3156805EA030430
:1088E0009C4234D105684F000326BE40B543056065
:1088F00015794E00B5400668354305601579012DA0
:1089000002D01579022D16D185684F000326BE408E
:10891000B543856055794E00B5408668354385601E
:10892000456801268E40B5434560456896798E407E
:10893000B6B235434560C5684F000326BE40B54317
:10894000C560D5794E00B540C6683543C560491C41
:108950001029BFD3F0BDF0B5002300244D07ED0E64
:1089600002FA05F3CE1000F1200555F826504E0707
:10897000F70E0F26BE40B543CF1000F1200646F893
:108980002750CE1000F1200555F8265045EA030483
:10899000CE1000F1200545F82640F0BD81617047FA
:1089A00042694A404261704700BFFEE71CB50121A1
:1089B000102000F061F84FF40050009001208DF875
:1089C000040003208DF8050069460448FFF77BFF8B
:1089D0004FF400510148FFF7E1FF1CBD00100240B9
:1089E00000BFFEE77047000070B5002100230F2292
:1089F000C4781CB3174C246804F4E064C4F5E06444
:108A0000C4F30721C1F10404E3B20A4144789C4055
:108A1000E1B28478144021430C07210E0E4C0578F6
:108A20006155047804F01F050124AC4005786D11F0
:108A3000AD0005F1E025C5F8004109E0047804F037
:108A40001F050124AC40054D0678761145F82640F7
:108A500070BD00000CED00E000E400E080E100E00B
:108A600002490143024A1160704700000000FA0504
:108A70000CED00E07047000029B1064A126802437D
:108A8000044B1A6004E0034A12688243014B1A60E7
:108A9000704700003038024029B1064A126802438C
:108AA000044B1A6004E0034A12688243014B1A60C7
:108AB000704700004038024029B1064A126802435C
:108AC000044B1A6004E0034A12688243014B1A60A7
:108AD0007047000020380240704700000CB50020AD
:108AE000019000903448006840F4803032490860BA
:108AF00000BF3148006800F4003000900198401C2D
:108B00000190009818B90198B0F5A04FF1D12A480A
:108B1000006800F4003010B10120009001E0002056
:108B200000900098012846D123484030006840F06A
:108B300080502149403108602048006840F440409E
:108B40001E4908601C48083000681B49083108604D
:108B50000846006840F4004008600846006840F499
:108B6000A05008601648091F0860081F006840F000
:108B70008070091F086000BF0F48006800F0007097
:108B80000028F9D040F205700E4908600A48083004
:108B9000006820F0030008490831086008460068B2
:108BA00040F00200086000BF03480830006800F091
:108BB0000C000828F8D10CBD0038024000700040BD
:108BC00019544007003C02407047000010B515489A
:108BD000006840F47000134908601348006840F0D2
:108BE00001001149086000200F49083108600E4853
:108BF00000680E4908400C4908600D48091D0860CE
:108C0000081F006820F48020091F08600020064922
:108C10000C310860FFF762FF4FF0006001498039B6
:108C2000086010BD88ED00E000380240FFFFF6FE4E
:108C3000103000241FB501210220FFF72DFF1A4834
:108C400000F08BF842F2CF00ADF8040040F2E730BC
:108C500002900020ADF80C00ADF806008DF80E0073
:108C600001A9114800F080F801210F4800F04CF8EC
:108C7000012211460C4800F067F84FF4A060FFF79E
:108C8000EFFE1D208DF8000002208DF8010001206C
:108C90008DF802008DF803006846FFF7A5FE01215C
:108CA000014800F034F81FBD0004004010B5012158
:108CB0000F4800F038F8D0B10E480088401C0D492C
:108CC0000880084600880A280DDB002008804FF441
:108CD00000510948FFF764FE084A0948017809482D
:108CE0000068FFF701FB0121014800F00DF810BDFD
:108CF0000004004000000020001002400900002095
:108D00000800002004000020CA430282704721B1FD
:108D1000028842F00102028004E002884FF6FE73EE
:108D20001A400280704730B502460020002300241C
:108D3000158A05EA0103958905EA010413B10CB10E
:108D4000012000E0002030BD1AB183890B438381EC
:108D500002E083898B438381704701894FF6F87263
:108D6000114001817047000000220288184B984290
:108D70000ED0184B98420BD0B0F1804F08D0164B54
:108D8000984205D0154B984202D0154B984204D119
:108D90004FF68F731A404B881A43124B984207D0F4
:108DA000114B984204D04FF6FF431A400B891A43E7
:108DB00002804B68C3620B880385054B984202D042
:108DC000044B984201D18B7A03860123838270473A
:108DD0000000014000040140000400400008004081
:108DE000000C0040001000400014004000BFFEE7EF
:108DF00008480949086062B6FFF71CFFFFF7D6FD77
:108E0000FFF7B8FA4FF400510448FFF7C7FD00BF61
:108E1000FEE700000080000808ED00E000100240BE
:108E20004FF04070E1EE100A704700004C8E0008D1
:108E30000000002014000000C4810008608E0008BB
:108E40001400002064060000E0810008000000001B
:108E500077070000041122334400000000000000E6
:0400000508008189E5
:00000001FF
